:100000000C9463000C948B000C948B000C948B006C
:100010000C948B000C948B000C948B000C943D057D
:100020000C948B000C948B000C948B000C948B0024
:100030000C948B000C948B000C948B000C948B0014
:100040000C94F3040C948B000C94BF050C9499054C
:100050000C948B000C948B000C948B000C948B00F4
:100060000C948B000C948B000000000023002600F1
:10007000290000000000240027002A0000000008DA
:10008000000201000003040700000000000000005F
:10009000010204081020408001020408102001021F
:1000A0000408102000000000250028002B00040494
:1000B0000404040404040202020202020303030310
:1000C00003030200300811241FBECFEFD8E0DEBFCB
:1000D000CDBF11E0A0E0B1E0E0EFF2E102C0059099
:1000E0000D92AC34B107D9F722E0ACE4B1E001C025
:1000F0001D92A836B207E1F710E0C3E6D0E004C0D5
:100100002197FE010E947009C236D107C9F70E94EB
:10011000F1050C9476090C940000833081F028F4EA
:10012000813099F08230A9F008958730A9F08830A5
:10013000C9F08430B1F4809180008F7D03C080913C
:1001400080008F7780938000089584B58F7784BD79
:10015000089584B58F7DFBCF8091B0008F77809319
:10016000B00008958091B0008F7DF9CF1F93CF9399
:10017000DF93282F30E0F901E458FF4F8491F90113
:10018000E057FF4FD491F901E255FF4FC491CC23C2
:10019000A9F0162F81110E948D00EC2FF0E0EE0FD8
:1001A000FF1FEC55FF4FA591B4918FB7F894EC91D8
:1001B000111108C0D095DE23DC938FBFDF91CF9162
:1001C0001F910895DE2BF8CFCF93DF9390E0FC01D1
:1001D000E057FF4F249182559F4FFC018491882363
:1001E000D1F090E0880F991FFC01EE58FF4FA591C8
:1001F000B491FC01EC55FF4FC591D491623071F47C
:100200009FB7F8943C91822F809583238C93E8814B
:100210002E2B28839FBFDF91CF9108958FB7F8943D
:10022000EC912E2B2C938FBFF6CF8F929F92AF9293
:10023000BF92CF92DF92EF92FF92CF936C018091A9
:100240000001883069F08F3F09F470C0CF91FF90B2
:10025000EF90DF90CF90BF90AF909F908F900895D8
:10026000E2ECF0E0C491C7FDF1CF61E088E00E94CC
:10027000E400CC2319F0C23009F022C1F12CE12CAA
:1002800060E072E18AE790E0A70196010E9401090F
:1002900049015A01DA01C9010197A109B1098F3F4A
:1002A0009105A105B10509F00CF4EEC060E472E41B
:1002B0008FE090E0A70196010E94010921503109C9
:1002C00041095109C23009F0A0C082E02F3F310539
:1002D0004105510509F00CF488C160E970ED83E037
:1002E00090E0A70196010E940109215031094109BE
:1002F000510983E02F3F31054105510509F00CF408
:1003000074C168E478EE81E090E0A70196010E9454
:10031000010921503109410951092F3F310541059A
:10032000510511F00CF08FC084E05FC188E080932C
:100330000001E2ECF0E0C491CF3F09F487CFC13077
:1003400021F150F0C23009F43EC0C7FD7FCF61E01B
:1003500088E00E94E4008FCF14BC15BC84B5826095
:1003600084BD85B5816085BDE6EBF0E0E491F0E009
:10037000EE0FFF1FEC55FF4F85919491E8E9F0E0F7
:10038000E491E0935B02C0E070CF10928000109285
:10039000810080918100886080938100809181003C
:1003A000816080938100E6EBF0E0E491F0E0EE0FF5
:1003B000FF1FEC55FF4F85919491E8E9F0E0E4913F
:1003C000E0935A0252CF1092B0001092B100809187
:1003D000B00082608093B0008091B1008160809312
:1003E000B100E6EBF0E0E491F0E0EE0FFF1FEC551A
:1003F000FF4F859194919093590280935802E8E9B8
:10040000F0E0E491E093570230CF2F3F31054105F2
:10041000510509F00CF452C068E478EE81E090E0F8
:10042000A70196010E940109215031094109510992
:10043000CC2309F4AFC02F3F31054105510511F020
:100440000CF0B0C071CF64E274EF80E090E0A701DF
:1004500096010E940109215031094109510985E0A5
:100460002F3F31054105510509F008F4BEC062E196
:100470007AE780E090E0A70196010E9401092150EF
:100480003109410951099CC09C0181E0C111ADC0F5
:1004900095B5987F892B85BD27BD8FEF9FEFDC0138
:1004A0008093640290936502A0936602B093670202
:1004B00080916E00826080936E00C8CE82E0E6CFAD
:1004C000F12CE12C60E072E18AE790E0A70196014F
:1004D0000E940109215031094109510991E021157A
:1004E000310581E0480751056CF068E478EE81E061
:1004F00090E0A70196010E940109215031094109AC
:10050000510993E0C13009F076C080918100887F65
:10051000892B8093810030938900209388008FEF8E
:100520009FEFDC018093600290936102A0936202CE
:10053000B093630280916F00826080936F0086CEDB
:100540002093B3008FEF9FEFDC0180935C029093C8
:100550005D02A0935E02B0935F02809170008260A2
:100560008093700073CE84E02F3F31054105510523
:1005700009F008F48DCF9AE0B594A79497948794E6
:100580009A95D1F7A50194012150310941095109EA
:1005900085E07ECF83E02F3F31054105510509F00D
:1005A0000CF476CF62E17AE780E090E0A701960153
:1005B0000E9401092150310941095109CC2399F2C6
:1005C00086E02F3F31054105510579F070F08AE052
:1005D000B594A794979487948A95D1F7A50194012F
:1005E000215031094109510987E09091B100987F6C
:1005F000892B8093B100C13009F48DCFC23009F44A
:100600009FCFC11123CE48CF3FB7F8948091B60158
:100610009091B701A091B801B091B90126B5A89BFE
:1006200005C02F3F19F00196A11DB11D3FBFBA2F84
:10063000A92F982F8827BC01CD01620F711D811D44
:10064000911D42E0660F771F881F991F4A95D1F7C9
:1006500008958F929F92AF92BF92CF92DF92EF92C6
:10066000FF924B015C010E9404036B017C010E941C
:1006700004036C197D098E099F09683E734081054A
:100680009105A8F321E0821A9108A108B10888EE2B
:10069000C80E83E0D81EE11CF11C81149104A10452
:1006A000B10429F7FF90EF90DF90CF90BF90AF900B
:1006B0009F908F9008959091000189130BC0E2ECF8
:1006C000F0E0E4919FEF90930001E13049F028F0D1
:1006D000E23061F060E00C94B60010926E00FACF48
:1006E00090916F009D7F90936F00F4CF9091700078
:1006F0009D7F9093700091E09093B0009091B10035
:10070000987F94609093B1001092B300E3CFAF92C2
:10071000BF92CF92DF92EF92FF920F931F93CF93EE
:10072000DF936C017B018B01040F151FEB015E0150
:10073000AE18BF08C017D10759F06991D601ED91E5
:10074000FC910190F081E02DC6010995892B79F784
:10075000C501DF91CF911F910F91FF90EF90DF9036
:10076000CF90BF90AF900895FC01538D448D252FFD
:1007700030E0842F90E0821B930B541710F0CF963B
:10078000089501970895FC01918D828D981761F06D
:10079000A28DAE0FBF2FB11D5D968C91928D9F5F84
:1007A0009F73928F90E008958FEF9FEF0895FC0163
:1007B000918D828D981731F0828DE80FF11D858D16
:1007C00090E008958FEF9FEF0895FC01918D228DA9
:1007D000892F90E0805C9F4F821B91098F7399272E
:1007E00008958AEB91E00E94E50321E0892B09F44A
:1007F00020E0822F089580E090E0892B29F00E946C
:10080000F10381110C9400000895FC01A48DA80F40
:10081000B92FB11DA35ABF4F2C91848D90E0019642
:100820008F739927848FA689B7892C93A089B18962
:100830008C91837080648C93938D848D981306C003
:100840000288F389E02D80818F7D80830895EF9267
:10085000FF920F931F93CF93DF93EC0181E0888F7A
:100860009B8D8C8D98131AC0E889F989808185FF4A
:1008700015C09FB7F894EE89FF896083E889F989EC
:1008800080818370806480839FBF81E090E0DF91EE
:10089000CF911F910F91FF90EF900895F62E0B8D41
:1008A00010E00F5F1F4F0F731127E02E8C8D8E11FC
:1008B0000CC00FB607FCFACFE889F989808185FF63
:1008C000F5CFCE010E940504F1CFEB8DEC0FFD2F8B
:1008D000F11DE35AFF4FF0829FB7F8940B8FEA891E
:1008E000FB8980818062CFCFCF93DF93EC01888D2D
:1008F0008823B9F0AA89BB89E889F9898C9185FD9B
:1009000003C0808186FD0DC00FB607FCF7CF8C9128
:1009100085FFF2CF808185FFEDCFCE010E940504D7
:10092000E9CFDF91CF9108951F93CF93DF93C82F25
:10093000D0E0FE01E15EFE4F108161E0812F0E9458
:10094000B600CC0FDD1FCB5FDE4F888199810E94FE
:1009500015016CE271E080E090E00E94290360E004
:10096000812F0E94B60088E0DF91CF911F910C94F7
:100970005B03CF93DF93D82FC8E06D2F661F6627E8
:10098000661F8EE00E94B600DD0F61E080E10E94EC
:10099000B60060E080E10E94B600C15071F7DF91BF
:1009A000CF910895CF93DF93C82FD62F60E08FE0CB
:1009B0000E94B6008D2F0E94B9048C2F0E94B904AA
:1009C00061E08FE0DF91CF910C94B600FC010190C3
:1009D0000020E9F73197AF01481B590BBC018AEBA6
:1009E00091E00C9487031F920F920FB60F9211247F
:1009F0002F933F938F939F93AF93BF938091B201B7
:100A00009091B301A091B401B091B5013091B101C1
:100A100023E0230F2D3758F50196A11DB11D20931A
:100A2000B1018093B2019093B301A093B401B0934C
:100A3000B5018091B6019091B701A091B801B09134
:100A4000B9010196A11DB11D8093B6019093B70124
:100A5000A093B801B093B901BF91AF919F918F91CD
:100A60003F912F910F900FBE0F901F90189526E881
:100A7000230F0296A11DB11DD2CF1F920F920FB668
:100A80000F9211242F933F934F935F936F937F9314
:100A90008F939F93AF93BF93EF93FF9380915C02EB
:100AA00090915D02A0915E02B0915F02892B8A2B2A
:100AB0008B2BD1F190915702E0915802F09159029D
:100AC00080818927808380915C0290915D02A09152
:100AD0005E02B0915F02181619061A061B069CF4F6
:100AE00080915C0290915D02A0915E02B0915F02E4
:100AF0000197A109B10980935C0290935D02A093D4
:100B00005E02B0935F02FF91EF91BF91AF919F9111
:100B10008F917F916F915F914F913F912F910F90A6
:100B20000FBE0F901F901895809100010E945B03EB
:100B3000EACF1F920F920FB60F9211242F933F937B
:100B40004F935F936F937F938F939F93AF93BF93D5
:100B5000EF93FF938AEB91E00E940504FF91EF91E0
:100B6000BF91AF919F918F917F916F915F914F91C5
:100B70003F912F910F900FBE0F901F9018951F92CD
:100B80000F920FB60F9211242F938F939F93EF9391
:100B9000FF93E091CA01F091CB018081E091D001F7
:100BA000F091D10182FD1BC090818091D3018F5FB4
:100BB0008F732091D401821741F0E091D301F0E0CE
:100BC000E654FE4F958F8093D301FF91EF919F9153
:100BD0008F912F910F900FBE0F901F9018958081CD
:100BE000F4CFCF93DF93CDB7DEB7A3970FB6F894CA
:100BF000DEBF0FBECDBF789484B5826084BD84B55E
:100C0000816084BD85B5826085BD85B5816085BD07
:100C100080916E00816080936E00109281008091BF
:100C20008100826080938100809181008160809347
:100C30008100809180008160809380008091B1006C
:100C400084608093B1008091B00081608093B00097
:100C500080917A00846080937A0080917A0082602B
:100C600080937A0080917A00816080937A008091ED
:100C70007A00806880937A001092C100E091CA01E6
:100C8000F091CB0182E08083E091C601F091C70131
:100C90001082E091C801F091C9018FEC808310921D
:100CA000D201E091CE01F091CF0186E08083E09106
:100CB000CC01F091CD01808180618083E091CC01F5
:100CC000F091CD01808188608083E091CC01F0912A
:100CD000CD01808180688083E091CC01F091CD01CD
:100CE00080818F7D80830FE111E053E2C52E51E0BA
:100CF000D52E6DE2E62E61E0F62E61E0F8018191DD
:100D00008F010E94E40062E0F70181917F010E945F
:100D1000E400C016D10689F761E088E00E94E40093
:100D200061E08FE00E94E40061E080E10E94E40065
:100D300061E08EE00E94E40083E480937C00809177
:100D40007A00806480937A0080917A0086FDFCCFDF
:100D50006091780070917900072E000C880B990B38
:100D6000611571058105910511F00E94F80834E0C4
:100D7000C32ED12CE12CF12C4AE0842E912CA12CF5
:100D8000B12C2091B001822F64E60E946409892F62
:100D90006AE00E946409E82F822F0E946409A92F4B
:100DA000B0E0AD5DBE4F6C918FEFEE2321F0F0E02F
:100DB000ED5DFE4F80810E94D2040E94A9087090D0
:100DC000B001072D10E0045B1E4FA70196010E94A1
:100DD0000109F801608381E0870D8436C8F48093AF
:100DE000B0010CE411E06090B001712CC8018C548A
:100DF00091408615970584F4F80181918F010E9436
:100E0000940462E370E080E090E00E942903EBCF5D
:100E1000F3E6F093B001E5CF0CE411E0C8018C5487
:100E20009140861597050CF0A2C0F80181918F01C1
:100E30008AA32DE2422E21E0522E212CF201219193
:100E40002F0130E0F901E458FF4F8491F901E05798
:100E5000FF4F94919BA3F901E255FF4F349033204B
:100E6000D1F081110E948D00E32DF0E0EE0FFF1F05
:100E7000E859FF4FA591B491EC91FBA1EF2359F0F4
:100E8000239484E02812DACF61E070E080E090E003
:100E90000E942903CECF822D0E9494049AA1291684
:100EA00009F4BCCF84E391E00E94E6042091B001F4
:100EB0002150330B2F3F320709F0B6C06DE28AEBA9
:100EC00091E00E94270419A2E1E3E8A3CE018096F5
:100ED0000E94E60481E391E00E94E6041092B001D2
:100EE00068EC70E080E090E00E9429038EE692E0DA
:100EF0000E9415016CE271E080E090E00E942903FD
:100F00008BE492E00E9415016CE271E080E090E0D9
:100F10000E9429038AE292E00E9415016CE271E0CE
:100F200080E090E00E9429038AE0782E01E012E040
:100F3000C8010E94150165E070E080E090E00E9429
:100F400029030F5F1F4F0631F2E01F0789F77A94DC
:100F50007110ECCF88E00E945B036FEB8FEB0E9477
:100F6000D20464EF71E080E090E00E9429036CE21B
:100F700071E080E090E00E9429038091B001882315
:100F800009F445C08AE491E00E94150166E970E029
:100F900080E090E00E94290388E891E00E9415011A
:100FA00066E970E080E090E00E94290383E992E026
:100FB0000E94150166E970E080E090E00E9429033C
:100FC0008BE092E00E94150166E970E080E090E01D
:100FD0000E9429038BE492E00E94150166E970E00B
:100FE00080E090E00E94290380E193E00E941501D7
:100FF00066E970E080E090E00E94290388E00E94AA
:101000005B036CE271E080E090E00E94290380E0E5
:1010100090E0892B09F4B5CE0E94F103882309F4EE
:10102000B0CE0E940000ADCE032E000C440B550B39
:1010300019A28E010F5D1F4FCA01B901A5019401CC
:101040000E943309605DF80162938F01211531051B
:101050004105510589F7309709F43CCFCF0138CFCE
:10106000EAEBF1E01382128288EE93E0A0E0B0E0B8
:1010700084839583A683B78381E191E09183808304
:1010800085EC90E09587848784EC90E0978786874D
:1010900080EC90E0918B808B81EC90E0938B828B45
:1010A00082EC90E0958B848B86EC90E0978B868B1E
:1010B000118E128E138E148E08958F929F92AF927E
:1010C000BF92CF92DF92EF92FF92CF93DF93EC012A
:1010D000688179818A819B816115710581059105FE
:1010E00021F464E279ED8BE597E02DE133EF41E007
:1010F00050E00E94010949015A019B01AC01A7EA95
:10110000B1E40E9420096B017C01ACEEB4EFA501B3
:1011100094010E942E09C60ED71EE81EF91EF7FE86
:1011200006C081E0C81AD108E10880E8F80AC88240
:10113000D982EA82FB82C701B6019F77DF91CF9106
:10114000FF90EF90DF90CF90BF90AF909F908F90E7
:1011500008958F929F92AF92BF92CF92DF92EF92BB
:10116000FF926091010170910201809103019091C1
:101170000401611571058105910521F464E279EDA1
:101180008BE597E02DE133EF41E050E00E9401094B
:1011900049015A019B01AC01A7EAB1E40E94200970
:1011A0006B017C01ACEEB4EFA50194010E942E0905
:1011B000C60ED71EE81EF91EF7FE06C081E0C81A4B
:1011C000D108E10880E8F80AC0920101D09202013A
:1011D000E0920301F0920401C701B6019F77FF90EE
:1011E000EF90DF90CF90BF90AF909F908F90089539
:1011F00060930101709302018093030190930401B5
:101200000895052E97FB1EF400940E94180957FDBF
:1012100007D00E94330907FC03D04EF40C94180940
:1012200050954095309521953F4F4F4F5F4F089512
:1012300090958095709561957F4F8F4F9F4F089542
:101240000E945509A59F900DB49F900DA49F800DFD
:10125000911D11240895B7FF0C9420090E942009C4
:10126000821B930B0895A1E21A2EAA1BBB1BFD0142
:101270000DC0AA1FBB1FEE1FFF1FA217B307E40775
:10128000F50720F0A21BB30BE40BF50B661F771FCD
:10129000881F991F1A9469F76095709580959095AD
:1012A0009B01AC01BD01CF010895A29FB001B39F86
:1012B000C001A39F700D811D1124911DB29F700D5F
:1012C000811D1124911D0895991B79E004C0991F77
:1012D000961708F0961B881F7A95C9F78095089590
:1012E000EE0FFF1F0590F491E02D0994F894FFCFC5
:1012F000FF01000000C40006014A011003000000C5
:101300000027048703B4037404E503C303D7030968
:101310000A0B0CC0F9A4B0999282F88090020304E1
:10132000050D0A0047616D65206F76657221207991
:0C1330006F75722073636F72653A2000C5
:00000001FF
